{
  "_format": "hh-sol-artifact-1",
  "contractName": "AreaOfShapeCalculator",
  "sourceName": "contracts/AreaCalculator.sol",
  "abi": [
    {
      "inputs": [
        {
          "internalType": "int256",
          "name": "_base",
          "type": "int256"
        },
        {
          "internalType": "int256",
          "name": "_height",
          "type": "int256"
        }
      ],
      "name": "getAreaOfTriangle",
      "outputs": [
        {
          "internalType": "int256",
          "name": "",
          "type": "int256"
        }
      ],
      "stateMutability": "pure",
      "type": "function"
    },
    {
      "inputs": [
        {
          "internalType": "int256",
          "name": "_length",
          "type": "int256"
        },
        {
          "internalType": "int256",
          "name": "_width",
          "type": "int256"
        }
      ],
      "name": "getAreaofRectangle",
      "outputs": [
        {
          "internalType": "int256",
          "name": "",
          "type": "int256"
        }
      ],
      "stateMutability": "pure",
      "type": "function"
    },
    {
      "inputs": [
        {
          "internalType": "int256",
          "name": "_length",
          "type": "int256"
        }
      ],
      "name": "getAreaofSqaure",
      "outputs": [
        {
          "internalType": "int256",
          "name": "",
          "type": "int256"
        }
      ],
      "stateMutability": "pure",
      "type": "function"
    }
  ],
  "bytecode": "0x608060405234801561001057600080fd5b5061036b806100206000396000f3fe608060405234801561001057600080fd5b50600436106100415760003560e01c80631c3f4c25146100465780633142f43614610076578063b7084504146100a6575b600080fd5b610060600480360381019061005b919061015e565b6100d6565b60405161006d91906101ad565b60405180910390f35b610090600480360381019061008b91906101c8565b6100f8565b60405161009d91906101ad565b60405180910390f35b6100c060048036038101906100bb919061015e565b61010d565b6040516100cd91906101ad565b60405180910390f35b6000600282846100e69190610224565b6100f091906102cb565b905092915050565b600081826101069190610224565b9050919050565b6000818361011b9190610224565b905092915050565b600080fd5b6000819050919050565b61013b81610128565b811461014657600080fd5b50565b60008135905061015881610132565b92915050565b6000806040838503121561017557610174610123565b5b600061018385828601610149565b925050602061019485828601610149565b9150509250929050565b6101a781610128565b82525050565b60006020820190506101c2600083018461019e565b92915050565b6000602082840312156101de576101dd610123565b5b60006101ec84828501610149565b91505092915050565b7f4e487b7100000000000000000000000000000000000000000000000000000000600052601160045260246000fd5b600061022f82610128565b915061023a83610128565b925082820261024881610128565b91507f800000000000000000000000000000000000000000000000000000000000000084146000841216156102805761027f6101f5565b5b8282058414831517610295576102946101f5565b5b5092915050565b7f4e487b7100000000000000000000000000000000000000000000000000000000600052601260045260246000fd5b60006102d682610128565b91506102e183610128565b9250826102f1576102f061029c565b5b600160000383147f80000000000000000000000000000000000000000000000000000000000000008314161561032a576103296101f5565b5b82820590509291505056fea2646970667358221220bb60df268de9fda3d93778fdb7806f961d19f974a5d6e73115f70ed6160ae9d564736f6c63430008180033",
  "linkReferences": {},
  "deployedLinkReferences": {}
}